{
  "_format": "hh-sol-artifact-1",
  "contractName": "MyNFT",
  "sourceName": "contracts/MyNFT.sol",
  "abi": [
    {
      "inputs": [],
      "stateMutability": "nonpayable",
      "type": "constructor"
    },
    {
      "inputs": [],
      "name": "ApprovalCallerNotOwnerNorApproved",
      "type": "error"
    },
    {
      "inputs": [],
      "name": "ApprovalQueryForNonexistentToken",
      "type": "error"
    },
    {
      "inputs": [],
      "name": "BalanceQueryForZeroAddress",
      "type": "error"
    },
    {
      "inputs": [],
      "name": "MintERC2309QuantityExceedsLimit",
      "type": "error"
    },
    {
      "inputs": [],
      "name": "MintToZeroAddress",
      "type": "error"
    },
    {
      "inputs": [],
      "name": "MintZeroQuantity",
      "type": "error"
    },
    {
      "inputs": [],
      "name": "OwnerQueryForNonexistentToken",
      "type": "error"
    },
    {
      "inputs": [],
      "name": "OwnershipNotInitializedForExtraData",
      "type": "error"
    },
    {
      "inputs": [],
      "name": "TransferCallerNotOwnerNorApproved",
      "type": "error"
    },
    {
      "inputs": [],
      "name": "TransferFromIncorrectOwner",
      "type": "error"
    },
    {
      "inputs": [],
      "name": "TransferToNonERC721ReceiverImplementer",
      "type": "error"
    },
    {
      "inputs": [],
      "name": "TransferToZeroAddress",
      "type": "error"
    },
    {
      "inputs": [],
      "name": "URIQueryForNonexistentToken",
      "type": "error"
    },
    {
      "anonymous": false,
      "inputs": [
        {
          "indexed": true,
          "internalType": "address",
          "name": "owner",
          "type": "address"
        },
        {
          "indexed": true,
          "internalType": "address",
          "name": "approved",
          "type": "address"
        },
        {
          "indexed": true,
          "internalType": "uint256",
          "name": "tokenId",
          "type": "uint256"
        }
      ],
      "name": "Approval",
      "type": "event"
    },
    {
      "anonymous": false,
      "inputs": [
        {
          "indexed": true,
          "internalType": "address",
          "name": "owner",
          "type": "address"
        },
        {
          "indexed": true,
          "internalType": "address",
          "name": "operator",
          "type": "address"
        },
        {
          "indexed": false,
          "internalType": "bool",
          "name": "approved",
          "type": "bool"
        }
      ],
      "name": "ApprovalForAll",
      "type": "event"
    },
    {
      "anonymous": false,
      "inputs": [
        {
          "indexed": true,
          "internalType": "uint256",
          "name": "fromTokenId",
          "type": "uint256"
        },
        {
          "indexed": false,
          "internalType": "uint256",
          "name": "toTokenId",
          "type": "uint256"
        },
        {
          "indexed": true,
          "internalType": "address",
          "name": "from",
          "type": "address"
        },
        {
          "indexed": true,
          "internalType": "address",
          "name": "to",
          "type": "address"
        }
      ],
      "name": "ConsecutiveTransfer",
      "type": "event"
    },
    {
      "anonymous": false,
      "inputs": [
        {
          "indexed": true,
          "internalType": "address",
          "name": "from",
          "type": "address"
        },
        {
          "indexed": true,
          "internalType": "address",
          "name": "to",
          "type": "address"
        },
        {
          "indexed": true,
          "internalType": "uint256",
          "name": "tokenId",
          "type": "uint256"
        }
      ],
      "name": "Transfer",
      "type": "event"
    },
    {
      "inputs": [
        {
          "internalType": "address",
          "name": "to",
          "type": "address"
        },
        {
          "internalType": "uint256",
          "name": "tokenId",
          "type": "uint256"
        }
      ],
      "name": "approve",
      "outputs": [],
      "stateMutability": "payable",
      "type": "function"
    },
    {
      "inputs": [
        {
          "internalType": "address",
          "name": "owner",
          "type": "address"
        }
      ],
      "name": "balanceOf",
      "outputs": [
        {
          "internalType": "uint256",
          "name": "",
          "type": "uint256"
        }
      ],
      "stateMutability": "view",
      "type": "function"
    },
    {
      "inputs": [],
      "name": "baseURI",
      "outputs": [
        {
          "internalType": "string",
          "name": "",
          "type": "string"
        }
      ],
      "stateMutability": "view",
      "type": "function"
    },
    {
      "inputs": [
        {
          "internalType": "uint256",
          "name": "tokenId",
          "type": "uint256"
        }
      ],
      "name": "getApproved",
      "outputs": [
        {
          "internalType": "address",
          "name": "",
          "type": "address"
        }
      ],
      "stateMutability": "view",
      "type": "function"
    },
    {
      "inputs": [
        {
          "internalType": "address",
          "name": "owner",
          "type": "address"
        },
        {
          "internalType": "address",
          "name": "operator",
          "type": "address"
        }
      ],
      "name": "isApprovedForAll",
      "outputs": [
        {
          "internalType": "bool",
          "name": "",
          "type": "bool"
        }
      ],
      "stateMutability": "view",
      "type": "function"
    },
    {
      "inputs": [
        {
          "internalType": "uint256",
          "name": "quantity",
          "type": "uint256"
        }
      ],
      "name": "mint",
      "outputs": [],
      "stateMutability": "payable",
      "type": "function"
    },
    {
      "inputs": [],
      "name": "name",
      "outputs": [
        {
          "internalType": "string",
          "name": "",
          "type": "string"
        }
      ],
      "stateMutability": "view",
      "type": "function"
    },
    {
      "inputs": [
        {
          "internalType": "uint256",
          "name": "tokenId",
          "type": "uint256"
        }
      ],
      "name": "ownerOf",
      "outputs": [
        {
          "internalType": "address",
          "name": "",
          "type": "address"
        }
      ],
      "stateMutability": "view",
      "type": "function"
    },
    {
      "inputs": [
        {
          "internalType": "uint256",
          "name": "tokenId",
          "type": "uint256"
        }
      ],
      "name": "promptDescription",
      "outputs": [
        {
          "internalType": "string",
          "name": "",
          "type": "string"
        }
      ],
      "stateMutability": "view",
      "type": "function"
    },
    {
      "inputs": [
        {
          "internalType": "address",
          "name": "from",
          "type": "address"
        },
        {
          "internalType": "address",
          "name": "to",
          "type": "address"
        },
        {
          "internalType": "uint256",
          "name": "tokenId",
          "type": "uint256"
        }
      ],
      "name": "safeTransferFrom",
      "outputs": [],
      "stateMutability": "payable",
      "type": "function"
    },
    {
      "inputs": [
        {
          "internalType": "address",
          "name": "from",
          "type": "address"
        },
        {
          "internalType": "address",
          "name": "to",
          "type": "address"
        },
        {
          "internalType": "uint256",
          "name": "tokenId",
          "type": "uint256"
        },
        {
          "internalType": "bytes",
          "name": "_data",
          "type": "bytes"
        }
      ],
      "name": "safeTransferFrom",
      "outputs": [],
      "stateMutability": "payable",
      "type": "function"
    },
    {
      "inputs": [
        {
          "internalType": "address",
          "name": "operator",
          "type": "address"
        },
        {
          "internalType": "bool",
          "name": "approved",
          "type": "bool"
        }
      ],
      "name": "setApprovalForAll",
      "outputs": [],
      "stateMutability": "nonpayable",
      "type": "function"
    },
    {
      "inputs": [
        {
          "internalType": "bytes4",
          "name": "interfaceId",
          "type": "bytes4"
        }
      ],
      "name": "supportsInterface",
      "outputs": [
        {
          "internalType": "bool",
          "name": "",
          "type": "bool"
        }
      ],
      "stateMutability": "view",
      "type": "function"
    },
    {
      "inputs": [],
      "name": "symbol",
      "outputs": [
        {
          "internalType": "string",
          "name": "",
          "type": "string"
        }
      ],
      "stateMutability": "view",
      "type": "function"
    },
    {
      "inputs": [
        {
          "internalType": "uint256",
          "name": "tokenId",
          "type": "uint256"
        }
      ],
      "name": "tokenURI",
      "outputs": [
        {
          "internalType": "string",
          "name": "",
          "type": "string"
        }
      ],
      "stateMutability": "view",
      "type": "function"
    },
    {
      "inputs": [],
      "name": "totalSupply",
      "outputs": [
        {
          "internalType": "uint256",
          "name": "",
          "type": "uint256"
        }
      ],
      "stateMutability": "view",
      "type": "function"
    },
    {
      "inputs": [
        {
          "internalType": "address",
          "name": "from",
          "type": "address"
        },
        {
          "internalType": "address",
          "name": "to",
          "type": "address"
        },
        {
          "internalType": "uint256",
          "name": "tokenId",
          "type": "uint256"
        }
      ],
      "name": "transferFrom",
      "outputs": [],
      "stateMutability": "payable",
      "type": "function"
    }
  ],
  "bytecode": "0x608060405260056008556040518060800160405280605181526020016200239260519139600990805190602001906200003a9291906200026d565b503480156200004857600080fd5b506040518060400160405280600581526020017f4d794e46540000000000000000000000000000000000000000000000000000008152506040518060400160405280600481526020017f4d4e4654000000000000000000000000000000000000000000000000000000008152508160029080519060200190620000cd9291906200026d565b508060039080519060200190620000e69291906200026d565b50620000f76200026860201b60201c565b60008190555050506040518060600160405280602381526020016200244e60239139600a6000600181526020019081526020016000206001019080519060200190620001459291906200026d565b506040518060800160405280604481526020016200247160449139600a60006002815260200190815260200160002060010190805190602001906200018c9291906200026d565b506040518060600160405280602881526020016200236a60289139600a6000600381526020019081526020016000206001019080519060200190620001d39291906200026d565b50604051806060016040528060348152602001620023e360349139600a60006004815260200190815260200160002060010190805190602001906200021a9291906200026d565b506040518060600160405280603781526020016200241760379139600a6000600581526020019081526020016000206001019080519060200190620002619291906200026d565b5062000382565b600090565b8280546200027b906200031d565b90600052602060002090601f0160209004810192826200029f5760008555620002eb565b82601f10620002ba57805160ff1916838001178555620002eb565b82800160010185558215620002eb579182015b82811115620002ea578251825591602001919060010190620002cd565b5b509050620002fa9190620002fe565b5090565b5b8082111562000319576000816000905550600101620002ff565b5090565b600060028204905060018216806200033657607f821691505b602082108114156200034d576200034c62000353565b5b50919050565b7f4e487b7100000000000000000000000000000000000000000000000000000000600052602260045260246000fd5b611fd880620003926000396000f3fe6080604052600436106100fe5760003560e01c80636c0360eb11610095578063a0712d6811610064578063a0712d6814610334578063a22cb46514610350578063b88d4fde14610379578063c87b56dd14610395578063e985e9c5146103d2576100fe565b80636c0360eb1461026457806370a082311461028f5780638e5a8638146102cc57806395d89b4114610309576100fe565b806318160ddd116100d157806318160ddd146101c457806323b872dd146101ef57806342842e0e1461020b5780636352211e14610227576100fe565b806301ffc9a71461010357806306fdde0314610140578063081812fc1461016b578063095ea7b3146101a8575b600080fd5b34801561010f57600080fd5b5061012a6004803603810190610125919061199a565b61040f565b6040516101379190611bb6565b60405180910390f35b34801561014c57600080fd5b506101556104a1565b6040516101629190611bd1565b60405180910390f35b34801561017757600080fd5b50610192600480360381019061018d91906119ec565b610533565b60405161019f9190611b4f565b60405180910390f35b6101c260048036038101906101bd919061195e565b6105b2565b005b3480156101d057600080fd5b506101d96106f6565b6040516101e69190611c33565b60405180910390f35b61020960048036038101906102049190611858565b61070d565b005b61022560048036038101906102209190611858565b610a32565b005b34801561023357600080fd5b5061024e600480360381019061024991906119ec565b610a52565b60405161025b9190611b4f565b60405180910390f35b34801561027057600080fd5b50610279610a64565b6040516102869190611bd1565b60405180910390f35b34801561029b57600080fd5b506102b660048036038101906102b191906117f3565b610af2565b6040516102c39190611c33565b60405180910390f35b3480156102d857600080fd5b506102f360048036038101906102ee91906119ec565b610bab565b6040516103009190611bd1565b60405180910390f35b34801561031557600080fd5b5061031e610c9b565b60405161032b9190611bd1565b60405180910390f35b61034e600480360381019061034991906119ec565b610d2d565b005b34801561035c57600080fd5b5061037760048036038101906103729190611922565b610d91565b005b610393600480360381019061038e91906118a7565b610e9c565b005b3480156103a157600080fd5b506103bc60048036038101906103b791906119ec565b610f0f565b6040516103c99190611bd1565b60405180910390f35b3480156103de57600080fd5b506103f960048036038101906103f4919061181c565b610fae565b6040516104069190611bb6565b60405180910390f35b60006301ffc9a760e01b827bffffffffffffffffffffffffffffffffffffffffffffffffffffffff1916148061046a57506380ac58cd60e01b827bffffffffffffffffffffffffffffffffffffffffffffffffffffffff1916145b8061049a5750635b5e139f60e01b827bffffffffffffffffffffffffffffffffffffffffffffffffffffffff1916145b9050919050565b6060600280546104b090611df3565b80601f01602080910402602001604051908101604052809291908181526020018280546104dc90611df3565b80156105295780601f106104fe57610100808354040283529160200191610529565b820191906000526020600020905b81548152906001019060200180831161050c57829003601f168201915b5050505050905090565b600061053e82611042565b610574576040517fcf4700e400000000000000000000000000000000000000000000000000000000815260040160405180910390fd5b6006600083815260200190815260200160002060000160009054906101000a900473ffffffffffffffffffffffffffffffffffffffff169050919050565b60006105bd82610a52565b90508073ffffffffffffffffffffffffffffffffffffffff166105de6110a1565b73ffffffffffffffffffffffffffffffffffffffff16146106415761060a816106056110a1565b610fae565b610640576040517fcfb3b94200000000000000000000000000000000000000000000000000000000815260040160405180910390fd5b5b826006600084815260200190815260200160002060000160006101000a81548173ffffffffffffffffffffffffffffffffffffffff021916908373ffffffffffffffffffffffffffffffffffffffff160217905550818373ffffffffffffffffffffffffffffffffffffffff168273ffffffffffffffffffffffffffffffffffffffff167f8c5be1e5ebec7d5bd14f71427d1e84f3dd0314c0f7b2291e5b200ac8c7c3b92560405160405180910390a4505050565b60006107006110a9565b6001546000540303905090565b6000610718826110ae565b90508373ffffffffffffffffffffffffffffffffffffffff168173ffffffffffffffffffffffffffffffffffffffff161461077f576040517fa114810000000000000000000000000000000000000000000000000000000000815260040160405180910390fd5b60008061078b8461117c565b915091506107a1818761079c6110a1565b6111a3565b6107ed576107b6866107b16110a1565b610fae565b6107ec576040517f59c896be00000000000000000000000000000000000000000000000000000000815260040160405180910390fd5b5b600073ffffffffffffffffffffffffffffffffffffffff168573ffffffffffffffffffffffffffffffffffffffff161415610854576040517fea553b3400000000000000000000000000000000000000000000000000000000815260040160405180910390fd5b61086186868660016111e7565b801561086c57600082555b600560008773ffffffffffffffffffffffffffffffffffffffff1673ffffffffffffffffffffffffffffffffffffffff168152602001908152602001600020600081546001900391905081905550600560008673ffffffffffffffffffffffffffffffffffffffff1673ffffffffffffffffffffffffffffffffffffffff168152602001908152602001600020600081546001019190508190555061093a856109168888876111ed565b7c020000000000000000000000000000000000000000000000000000000017611215565b600460008681526020019081526020016000208190555060007c0200000000000000000000000000000000000000000000000000000000841614156109c25760006001850190506000600460008381526020019081526020016000205414156109c05760005481146109bf578360046000838152602001908152602001600020819055505b5b505b838573ffffffffffffffffffffffffffffffffffffffff168773ffffffffffffffffffffffffffffffffffffffff167fddf252ad1be2c89b69c2b068fc378daa952ba7f163c4a11628f55a4df523b3ef60405160405180910390a4610a2a8686866001611240565b505050505050565b610a4d83838360405180602001604052806000815250610e9c565b505050565b6000610a5d826110ae565b9050919050565b60098054610a7190611df3565b80601f0160208091040260200160405190810160405280929190818152602001828054610a9d90611df3565b8015610aea5780601f10610abf57610100808354040283529160200191610aea565b820191906000526020600020905b815481529060010190602001808311610acd57829003601f168201915b505050505081565b60008073ffffffffffffffffffffffffffffffffffffffff168273ffffffffffffffffffffffffffffffffffffffff161415610b5a576040517f8f4eb60400000000000000000000000000000000000000000000000000000000815260040160405180910390fd5b67ffffffffffffffff600560008473ffffffffffffffffffffffffffffffffffffffff1673ffffffffffffffffffffffffffffffffffffffff16815260200190815260200160002054169050919050565b6060610bb682611042565b610bf5576040517f08c379a0000000000000000000000000000000000000000000000000000000008152600401610bec90611c13565b60405180910390fd5b600a60008381526020019081526020016000206001018054610c1690611df3565b80601f0160208091040260200160405190810160405280929190818152602001828054610c4290611df3565b8015610c8f5780601f10610c6457610100808354040283529160200191610c8f565b820191906000526020600020905b815481529060010190602001808311610c7257829003601f168201915b50505050509050919050565b606060038054610caa90611df3565b80601f0160208091040260200160405190810160405280929190818152602001828054610cd690611df3565b8015610d235780601f10610cf857610100808354040283529160200191610d23565b820191906000526020600020905b815481529060010190602001808311610d0657829003601f168201915b5050505050905090565b60085481610d396106f6565b610d439190611ce7565b1115610d84576040517f08c379a0000000000000000000000000000000000000000000000000000000008152600401610d7b90611bf3565b60405180910390fd5b610d8e3382611246565b50565b8060076000610d9e6110a1565b73ffffffffffffffffffffffffffffffffffffffff1673ffffffffffffffffffffffffffffffffffffffff16815260200190815260200160002060008473ffffffffffffffffffffffffffffffffffffffff1673ffffffffffffffffffffffffffffffffffffffff16815260200190815260200160002060006101000a81548160ff0219169083151502179055508173ffffffffffffffffffffffffffffffffffffffff16610e4b6110a1565b73ffffffffffffffffffffffffffffffffffffffff167f17307eab39ab6107e8899845ad3d59bd9653f200f220920489ca2b5937696c3183604051610e909190611bb6565b60405180910390a35050565b610ea784848461070d565b60008373ffffffffffffffffffffffffffffffffffffffff163b14610f0957610ed284848484611264565b610f08576040517fd1a57ed600000000000000000000000000000000000000000000000000000000815260040160405180910390fd5b5b50505050565b6060610f1a82611042565b610f50576040517fa14c4b5000000000000000000000000000000000000000000000000000000000815260040160405180910390fd5b6000610f5a6113c4565b9050600081511415610f7b5760405180602001604052806000815250610fa6565b80610f8584611456565b604051602001610f96929190611b2b565b6040516020818303038152906040525b915050919050565b6000600760008473ffffffffffffffffffffffffffffffffffffffff1673ffffffffffffffffffffffffffffffffffffffff16815260200190815260200160002060008373ffffffffffffffffffffffffffffffffffffffff1673ffffffffffffffffffffffffffffffffffffffff16815260200190815260200160002060009054906101000a900460ff16905092915050565b60008161104d6110a9565b1115801561105c575060005482105b801561109a575060007c0100000000000000000000000000000000000000000000000000000000600460008581526020019081526020016000205416145b9050919050565b600033905090565b600090565b600080829050806110bd6110a9565b11611145576000548110156111445760006004600083815260200190815260200160002054905060007c010000000000000000000000000000000000000000000000000000000082161415611142575b600081141561113857600460008360019003935083815260200190815260200160002054905061110d565b8092505050611177565b505b5b6040517fdf2d9b4200000000000000000000000000000000000000000000000000000000815260040160405180910390fd5b919050565b60008060006006600085815260200190815260200160002090508092508254915050915091565b600073ffffffffffffffffffffffffffffffffffffffff8316925073ffffffffffffffffffffffffffffffffffffffff821691508382148383141790509392505050565b50505050565b60008060e883901c905060e86112048686846114af565b62ffffff16901b9150509392505050565b600073ffffffffffffffffffffffffffffffffffffffff83169250814260a01b178317905092915050565b50505050565b6112608282604051806020016040528060008152506114b8565b5050565b60008373ffffffffffffffffffffffffffffffffffffffff1663150b7a0261128a6110a1565b8786866040518563ffffffff1660e01b81526004016112ac9493929190611b6a565b602060405180830381600087803b1580156112c657600080fd5b505af19250505080156112f757506040513d601f19601f820116820180604052508101906112f491906119c3565b60015b611371573d8060008114611327576040519150601f19603f3d011682016040523d82523d6000602084013e61132c565b606091505b50600081511415611369576040517fd1a57ed600000000000000000000000000000000000000000000000000000000815260040160405180910390fd5b805181602001fd5b63150b7a0260e01b7bffffffffffffffffffffffffffffffffffffffffffffffffffffffff1916817bffffffffffffffffffffffffffffffffffffffffffffffffffffffff191614915050949350505050565b6060600980546113d390611df3565b80601f01602080910402602001604051908101604052809291908181526020018280546113ff90611df3565b801561144c5780601f106114215761010080835404028352916020019161144c565b820191906000526020600020905b81548152906001019060200180831161142f57829003601f168201915b5050505050905090565b606060a060405101806040526020810391506000825281835b60011561149a57600184039350600a81066030018453600a81049050806114955761149a565b61146f565b50828103602084039350808452505050919050565b60009392505050565b6114c28383611555565b60008373ffffffffffffffffffffffffffffffffffffffff163b1461155057600080549050600083820390505b6115026000868380600101945086611264565b611538576040517fd1a57ed600000000000000000000000000000000000000000000000000000000815260040160405180910390fd5b8181106114ef57816000541461154d57600080fd5b50505b505050565b6000805490506000821415611596576040517fb562e8dd00000000000000000000000000000000000000000000000000000000815260040160405180910390fd5b6115a360008483856111e7565b600160406001901b178202600560008573ffffffffffffffffffffffffffffffffffffffff1673ffffffffffffffffffffffffffffffffffffffff1681526020019081526020016000206000828254019250508190555061161a8361160b60008660006111ed565b61161485611712565b17611215565b6004600083815260200190815260200160002081905550600080838301905073ffffffffffffffffffffffffffffffffffffffff85169150828260007fddf252ad1be2c89b69c2b068fc378daa952ba7f163c4a11628f55a4df523b3ef600080a4600183015b8181146116bb57808360007fddf252ad1be2c89b69c2b068fc378daa952ba7f163c4a11628f55a4df523b3ef600080a4600181019050611680565b5060008214156116f7576040517f2e07630000000000000000000000000000000000000000000000000000000000815260040160405180910390fd5b80600081905550505061170d6000848385611240565b505050565b60006001821460e11b9050919050565b600061173561173084611c73565b611c4e565b90508281526020810184848401111561174d57600080fd5b611758848285611db1565b509392505050565b60008135905061176f81611f46565b92915050565b60008135905061178481611f5d565b92915050565b60008135905061179981611f74565b92915050565b6000815190506117ae81611f74565b92915050565b600082601f8301126117c557600080fd5b81356117d5848260208601611722565b91505092915050565b6000813590506117ed81611f8b565b92915050565b60006020828403121561180557600080fd5b600061181384828501611760565b91505092915050565b6000806040838503121561182f57600080fd5b600061183d85828601611760565b925050602061184e85828601611760565b9150509250929050565b60008060006060848603121561186d57600080fd5b600061187b86828701611760565b935050602061188c86828701611760565b925050604061189d868287016117de565b9150509250925092565b600080600080608085870312156118bd57600080fd5b60006118cb87828801611760565b94505060206118dc87828801611760565b93505060406118ed878288016117de565b925050606085013567ffffffffffffffff81111561190a57600080fd5b611916878288016117b4565b91505092959194509250565b6000806040838503121561193557600080fd5b600061194385828601611760565b925050602061195485828601611775565b9150509250929050565b6000806040838503121561197157600080fd5b600061197f85828601611760565b9250506020611990858286016117de565b9150509250929050565b6000602082840312156119ac57600080fd5b60006119ba8482850161178a565b91505092915050565b6000602082840312156119d557600080fd5b60006119e38482850161179f565b91505092915050565b6000602082840312156119fe57600080fd5b6000611a0c848285016117de565b91505092915050565b611a1e81611d3d565b82525050565b611a2d81611d4f565b82525050565b6000611a3e82611ca4565b611a488185611cba565b9350611a58818560208601611dc0565b611a6181611ee3565b840191505092915050565b6000611a7782611caf565b611a818185611ccb565b9350611a91818560208601611dc0565b611a9a81611ee3565b840191505092915050565b6000611ab082611caf565b611aba8185611cdc565b9350611aca818560208601611dc0565b80840191505092915050565b6000611ae3601683611ccb565b9150611aee82611ef4565b602082019050919050565b6000611b06601283611ccb565b9150611b1182611f1d565b602082019050919050565b611b2581611da7565b82525050565b6000611b378285611aa5565b9150611b438284611aa5565b91508190509392505050565b6000602082019050611b646000830184611a15565b92915050565b6000608082019050611b7f6000830187611a15565b611b8c6020830186611a15565b611b996040830185611b1c565b8181036060830152611bab8184611a33565b905095945050505050565b6000602082019050611bcb6000830184611a24565b92915050565b60006020820190508181036000830152611beb8184611a6c565b905092915050565b60006020820190508181036000830152611c0c81611ad6565b9050919050565b60006020820190508181036000830152611c2c81611af9565b9050919050565b6000602082019050611c486000830184611b1c565b92915050565b6000611c58611c69565b9050611c648282611e25565b919050565b6000604051905090565b600067ffffffffffffffff821115611c8e57611c8d611eb4565b5b611c9782611ee3565b9050602081019050919050565b600081519050919050565b600081519050919050565b600082825260208201905092915050565b600082825260208201905092915050565b600081905092915050565b6000611cf282611da7565b9150611cfd83611da7565b9250827fffffffffffffffffffffffffffffffffffffffffffffffffffffffffffffffff03821115611d3257611d31611e56565b5b828201905092915050565b6000611d4882611d87565b9050919050565b60008115159050919050565b60007fffffffff0000000000000000000000000000000000000000000000000000000082169050919050565b600073ffffffffffffffffffffffffffffffffffffffff82169050919050565b6000819050919050565b82818337600083830152505050565b60005b83811015611dde578082015181840152602081019050611dc3565b83811115611ded576000848401525b50505050565b60006002820490506001821680611e0b57607f821691505b60208210811415611e1f57611e1e611e85565b5b50919050565b611e2e82611ee3565b810181811067ffffffffffffffff82111715611e4d57611e4c611eb4565b5b80604052505050565b7f4e487b7100000000000000000000000000000000000000000000000000000000600052601160045260246000fd5b7f4e487b7100000000000000000000000000000000000000000000000000000000600052602260045260246000fd5b7f4e487b7100000000000000000000000000000000000000000000000000000000600052604160045260246000fd5b6000601f19601f8301169050919050565b7f4e6f7420656e6f75676820746f6b656e73206c65667400000000000000000000600082015250565b7f4e465420646f6573206e6f742065786973740000000000000000000000000000600082015250565b611f4f81611d3d565b8114611f5a57600080fd5b50565b611f6681611d4f565b8114611f7157600080fd5b50565b611f7d81611d5b565b8114611f8857600080fd5b50565b611f9481611da7565b8114611f9f57600080fd5b5056fea264697066735822122016786fc530e582f682b5480c9dd9d2474ad2e8c16a1ff4e6e8997385c75e277e64736f6c6343000804003348696768207175616c6974792070686f746f206f662061206d6f6e6b657920617374726f6e61757468747470733a2f2f676174657761792e70696e6174612e636c6f75642f697066732f516d6252415179696e39467a355365774a42787a485846643274457a4c594c506a6665663479537735664b5154612f4120536869626120496e7520646f672077656172696e67206120626572657420616e6420626c61636b20747572746c656e65636b412070686f746f206f6620612074656464792062656172206f6e206120736b617465626f61726420696e2054696d6573205371756172654120636172746f6f6e206f66206120636174206361746368696e672061206d6f757365416e20416e647920576172686f6c207374796c65207061696e74696e67206f662061206672656e63682062756c6c646f672077656172696e672073756e676c6173736573",
  "linkReferences": {},
  "deployedLinkReferences": {}
}